{
  "contractName": "TestContract",
  "abi": [
    {
      "inputs": [],
      "stateMutability": "nonpayable",
      "type": "constructor"
    },
    {
      "inputs": [],
      "name": "count",
      "outputs": [
        {
          "internalType": "int256",
          "name": "",
          "type": "int256"
        }
      ],
      "stateMutability": "view",
      "type": "function",
      "constant": true
    },
    {
      "inputs": [
        {
          "internalType": "uint256",
          "name": "",
          "type": "uint256"
        }
      ],
      "name": "numbers",
      "outputs": [
        {
          "internalType": "uint256",
          "name": "",
          "type": "uint256"
        }
      ],
      "stateMutability": "view",
      "type": "function",
      "constant": true
    },
    {
      "inputs": [
        {
          "internalType": "uint256",
          "name": "x",
          "type": "uint256"
        }
      ],
      "name": "double",
      "outputs": [
        {
          "internalType": "uint256",
          "name": "",
          "type": "uint256"
        }
      ],
      "stateMutability": "pure",
      "type": "function",
      "constant": true
    },
    {
      "inputs": [
        {
          "internalType": "int256",
          "name": "x",
          "type": "int256"
        }
      ],
      "name": "sum",
      "outputs": [
        {
          "internalType": "int256",
          "name": "",
          "type": "int256"
        }
      ],
      "stateMutability": "nonpayable",
      "type": "function"
    },
    {
      "inputs": [
        {
          "internalType": "int256",
          "name": "x",
          "type": "int256"
        }
      ],
      "name": "sub",
      "outputs": [
        {
          "internalType": "int256",
          "name": "",
          "type": "int256"
        }
      ],
      "stateMutability": "nonpayable",
      "type": "function"
    },
    {
      "inputs": [
        {
          "internalType": "uint256",
          "name": "x",
          "type": "uint256"
        }
      ],
      "name": "addNumber",
      "outputs": [],
      "stateMutability": "nonpayable",
      "type": "function"
    }
  ],
  "bytecode": "0x608060405234801561001057600080fd5b506000600181905550610640806100286000396000f3fe608060405234801561001057600080fd5b50600436106100625760003560e01c806306661abd14610067578063a50e186014610085578063d39fa233146100b5578063eee97206146100e5578063fa3bd6c514610115578063fce6802314610145575b600080fd5b61006f610161565b60405161007c9190610338565b60405180910390f35b61009f600480360381019061009a91906102c8565b610167565b6040516100ac9190610338565b60405180910390f35b6100cf60048036038101906100ca91906102f1565b610187565b6040516100dc9190610353565b60405180910390f35b6100ff60048036038101906100fa91906102f1565b6101ab565b60405161010c9190610353565b60405180910390f35b61012f600480360381019061012a91906102c8565b6101dc565b60405161013c9190610338565b60405180910390f35b61015f600480360381019061015a91906102f1565b6101fc565b005b60015481565b600081600154610177919061036e565b6001819055506001549050919050565b6002818154811061019757600080fd5b906000526020600020016000915090505481565b60008160006002826101bd919061054d565b146101c757600080fd5b6002836101d49190610402565b915050919050565b6000816001546101ec919061045c565b6001819055506001549050919050565b8060005b600280549050811015610270578160028281548110610248577f4e487b7100000000000000000000000000000000000000000000000000000000600052603260045260246000fd5b90600052602060002001541461025d57600080fd5b808061026890610504565b915050610200565b5060028290806001815401808255809150506001900390600052602060002001600090919091909150555050565b6000813590506102ad816105dc565b92915050565b6000813590506102c2816105f3565b92915050565b6000602082840312156102da57600080fd5b60006102e88482850161029e565b91505092915050565b60006020828403121561030357600080fd5b6000610311848285016102b3565b91505092915050565b610323816104f0565b82525050565b610332816104fa565b82525050565b600060208201905061034d600083018461031a565b92915050565b60006020820190506103686000830184610329565b92915050565b6000610379826104f0565b9150610384836104f0565b9250817f7fffffffffffffffffffffffffffffffffffffffffffffffffffffffffffffff038313600083121516156103bf576103be61057e565b5b817f80000000000000000000000000000000000000000000000000000000000000000383126000831216156103f7576103f661057e565b5b828201905092915050565b600061040d826104fa565b9150610418836104fa565b9250817fffffffffffffffffffffffffffffffffffffffffffffffffffffffffffffffff04831182151516156104515761045061057e565b5b828202905092915050565b6000610467826104f0565b9150610472836104f0565b9250827f8000000000000000000000000000000000000000000000000000000000000000018212600084121516156104ad576104ac61057e565b5b827f7fffffffffffffffffffffffffffffffffffffffffffffffffffffffffffffff0182136000841216156104e5576104e461057e565b5b828203905092915050565b6000819050919050565b6000819050919050565b600061050f826104fa565b91507fffffffffffffffffffffffffffffffffffffffffffffffffffffffffffffffff8214156105425761054161057e565b5b600182019050919050565b6000610558826104fa565b9150610563836104fa565b925082610573576105726105ad565b5b828206905092915050565b7f4e487b7100000000000000000000000000000000000000000000000000000000600052601160045260246000fd5b7f4e487b7100000000000000000000000000000000000000000000000000000000600052601260045260246000fd5b6105e5816104f0565b81146105f057600080fd5b50565b6105fc816104fa565b811461060757600080fd5b5056fea2646970667358221220c04ee4369bbf4b4a7f56d4b1f2d0123afe41785c12d7440f0c4363b30c5d613964736f6c63430008010033",
  "immutableReferences": {},
  "source": "// SPDX-License-Identifier: GPL-3.0\r\npragma solidity ^0.8.1;\r\n\r\ncontract TestContract {\r\n    uint256 stateVariable;\r\n    int public count;\r\n    uint[] public numbers;\r\n\r\n    constructor() {\r\n        count = 0;\r\n    }\r\n\r\n    function double(uint x) public pure checkOdd(x) returns (uint) {\r\n        return x * 2;\r\n    }\r\n\r\n    modifier checkOdd(uint x) {\r\n        require( x % 2 == 0);\r\n        _;\r\n    }\r\n\r\n    function sum(int x) public returns (int){\r\n        count = count + x;\r\n         return count;\r\n    }\r\n\r\n    function sub(int x) public returns (int) {\r\n        count = count - x;\r\n        return count;\r\n    }\r\n\r\n    function addNumber(uint x) public checkExist(x) {\r\n        numbers.push(x);\r\n    }\r\n\r\n    modifier checkExist(uint x) {\r\n        for (uint i=0; i < numbers.length; i++) {\r\n            require(numbers[i] == x);\r\n        }\r\n        _;\r\n    }\r\n\r\n}",
  "sourcePath": "C:\\Users\\Facu\\Desktop\\Projects\\Capacitacin\\Smart contracts\\testcontract\\TestContract\\contracts\\TestContract.sol",
  "compiler": {
    "name": "solc",
    "version": "0.8.1+commit.df193b15.Emscripten.clang"
  },
  "schemaVersion": "3.4.3",
  "updatedAt": "2021-09-08T14:12:17.939Z",
  "networkType": "ethereum",
  "devdoc": {
    "kind": "dev",
    "methods": {},
    "version": 1
  },
  "userdoc": {
    "kind": "user",
    "methods": {},
    "version": 1
  }
}